:020000041000EA
:1000000000B5324B212058609868022188439860DF
:10001000D860186158612E4B002199600221596106
:100020000121F02299502B49196001219960352056
:1000300000F044F80222904214D00621196600F024
:1000400034F8196E01211966002018661A6600F04E
:100050002CF8196E196E196E052000F02FF8012189
:100060000842F9D1002199601B49196000215960AB
:100070001A491B48016001219960EB211966A021F2
:10008000196600F012F800219960164914480160C1
:100090000121996001BC002800D000471248134993
:1000A000086003C880F30888084703B5996A0420EC
:1000B0000142FBD001200142F8D103BD02B5186610
:1000C0001866FFF7F2FF186E186E02BD00000240BE
:1000D000000000180000070000035F00212200005C
:1000E000F4000018222000A00001001008ED00E03C
:1000F00000000000000000000000000074B24E7A12
:1001000000200420F7010010C3010010C5010010F9
:10011000C1010010C1010010C1010010C101001097
:10012000C1010010C1010010C1010010C701001081
:10013000C1010010C1010010C9010010CB01001065
:10014000CD010010CD010010CD010010CD01001037
:10015000CD010010CD010010CD010010CD01001027
:10016000CD010010CD010010CD010010CD01001017
:10017000CD010010CD010010CD010010CD01001007
:10018000CD010010CD010010CD010010CD010010F7
:10019000CD010010CD010010CD010010CD010010E7
:1001A000CD010010CD010010CD010010CD010010D7
:1001B000CD010010CD010010CD010010CD010010C7
:1001C00000BE00BE00BE00BE00BE00BEEFF3058054
:1001D000103800BEF2EB887158E4051078E4051081
:1001E0003802001090A31AE71E481F49086006C88D
:1001F00081F3088810471D480068002801D019487D
:10020000F3E70DA40ECC002902D000F012F8F9E7B4
:100210001749184A002000E001C19142FCD116495B
:100220008847164988471649884700BEFDE701C937
:1002300001C29A42FBD3704778E40510E000002029
:1002400034190020CCFC051000000420000004201C
:10025000CCFC051000100420001004200000000059
:10026000704700000000000008ED00E0000000D032
:100270003419002090E3002039460110D109001004
:10028000F9450110F8B5C04606480749091A8B1010
:10029000C90FC91810B5491003D0044B002B00D06A
:1002A000984710BD341900203419002000000000C8
:1002B000054B10B5002B03D00449054800E000BFF2
:1002C000FFF7E2FF10BDC04600000000FCD1002097
:1002D00044D1011070B506000C00002A2AD1002973
:1002E00028D0174814F098FBCA20400012F098FC60
:1002F000CA2200215200050012F086FCC8230836ED
:100300005B00290020002C60EE5005F039F9200038
:100310000C4905F047F920000B4905F035F90A2290
:1003200020000A4905F062F92000094905F048F962
:10033000002070BD074814F06FFB06204042F8E72C
:100340005CD1011065040010FD0400107D03001055
:10035000F503001048D1011010B50400002014F07E
:10036000ADFA20239843442807D111F0BBFC0DF0CF
:1003700055F911F0C1FC0123237110BD70B50600C1
:100380001A480C00002514F047FB002C20D0002157
:10039000200005F0F5F800220021200005F026F9E4
:1003A0000021200005F0FEF80021200005F0ECF807
:1003B0000021200005F004F9200005F02FFD051EA6
:1003C00008D1002E04D0CA213000490012F02CFCC4
:1003D000280070BD29000D25054814F0A1FB200060
:1003E00005F054FA6D42002EEDD1F1E770D1011005
:1003F00084D101100B0070B505000D3300D170BD24
:10040000164814F08DFB2C68002CF8D00021200039
:1004100005F0B6F800220021200005F0E7F80021E1
:10042000200005F0BFF80021200005F0ADF8002104
:10043000200005F0C5F8200005F0F0FC011E05D1F4
:10044000CA212800490012F0EFFBD8E7044814F055
:1004500067FB200005F01AFAF2E7C046A4D10110AC
:1004600084D1011070B5050014000E002048110061
:1004700014F056FB6B68C622E418C4236C605B0062
:100480005200EB58AA589B189C4202DA0024200024
:1004900070BD184814F0C0FA002EF7D000213000CB
:1004A00005F06EF800220021300005F09FF80021D1
:1004B000300005F077F80021300005F065F80021E4
:1004C000300005F07DF8300005F0A8FC041E05D1D1
:1004D000CA212800490012F0A7FBD8E721000D240B
:1004E000054814F01DFB300005F0D0F96442EFE739
:1004F000BCD10110D0D1011084D10110F0B54E460D
:100500004546DE465746E0B5140005000E001A00C9
:1005100089B0002C00D18FE02189002900D17FE033
:100520002F00D54814F0FCFA238908371A1C7F2BBA
:1005300000D97F2200233900200092B204F0A0F9F4
:100540002B7A472B68D17B78452B65D15422BB7819
:10055000D11A8B469A425FD10C239846A8443F217A
:10056000404617F037FC8246002800D129E1037885
:10057000002B00D088E088339C46AC44634603934C
:10058000BE4B0822190040469A4617F085FC002809
:1005900000D109E11522BA49039812F03BFB002370
:1005A00014209946C6235B009B464A46E8504146C4
:1005B000B44814F0B5FA5B46B348E95814F0B0FA01
:1005C0005B46EB589946FF2B00DDC9E0002B00DCB1
:1005D00091E108225146404617F05EFC002800D009
:1005E000FDE04B46802100933800C823A74A13F052
:1005F00089FFC4235B00E8500023390082B26B609E
:10060000300007F011FC071E00D08AE1C6235B0012
:10061000EA58002A00D0EFE03000218904F09AFC6B
:10062000200003F0F7FF0027380009B0F0BCBB46FC
:10063000B246A946A046F0BD954814F0EDF9002E4B
:10064000F1D00021300004F09BFF00220021300097
:1006500004F0CCFF0021300004F0A4FF00213000A2
:1006600004F092FF0021300004F0AAFF300005F0F2
:10067000D5FB071E00D078E1002DD5D0CA21280077
:10068000490012F0D1FACFE72021404617F0A2FB33
:100690000123534499465A4653461A70002800D005
:1006A000027088239C46AC4463460393734B082234
:1006B000190040469A4617F0EFFB00282CD0002383
:1006C000744948460693079317F086FD724983469E
:1006D000484617F081FD002305935B460490002BEC
:1006E00009D058466D4906AA17F0C2FA01384342AC
:1006F0005841C3B205930498002806D0684907AA58
:1007000017F0B6FA012800D1E0E0282265490398E5
:1007100012F080FA272045E706AB9B46624B5A460B
:1007200000211800049310F0B7FF5B461B78484681
:100730005E4907AA079317F09BFA079B012800D18F
:1007400090E0002B3FD05A495A4B01910021009173
:100750000131594A0398FF3113F0D4FE672021E795
:100760001900564814F0DCF9002E42D00021300068
:1007700004F006FF00220021300004F037FF0021C2
:10078000300004F00FFF0021300004F0FDFE0021D6
:10079000300004F015FF300005F040FB011E00D0D2
:1007A000E1E00F277F4269E706AB99461A00002176
:1007B0003D4810F071FF4B4600221B78914607938D
:1007C000BFE78823D8E63B49394B019101213A4ADA
:1007D00000910398FF3113F095FE6720E2E64B4647
:1007E00080213800364A13F08DFEC4235B00E850A8
:1007F00002E70F277F4217E700233000039992B2E8
:1008000007F012FB071E00D106E739002D4814F04F
:1008100087F9002E00D107E70021300004F0B0FE78
:1008200000220021300004F0E1FE0021300004F03D
:10083000B9FE0021300004F0A7FE3000002104F0D2
:10084000BFFE300005F0EAFA002800D116E71E4B83
:10085000010018000D2714F063F9300005F016F8B8
:100860007F420BE7002B00D189E001220021049890
:1008700010F0C0FE079B64E7F0D101100CD201100C
:10088000E0D20110F8D2011008D3011030D30110CA
:10089000DCD1011090D2011098D20110A0D2011029
:1008A000ACD20110B8D20110A025002018D201103E
:1008B0008CD2011020D2011024D2011014D30110C7
:1008C00090D3011058D4011084D10110059B002B46
:1008D00000D11AE7069A2D4B1A60079A2C4B1A6022
:1008E00000F062FC80212B4B2B4A1B6803984900C7
:1008F00013F008FE56E6C8235B00E8580CF036FDFE
:1009000080210300254A380013F0FCFDC4235B005E
:100910009846E8503900224814F002F94346E85856
:100920006AE639001F4814F0FBF8002E00D17BE680
:100930000021300004F024FE00220021300004F0E9
:1009400055FE0021300004F02DFE0021300004F09F
:100950001BFE0021300004F033FE300005F05EFA8B
:10096000011E00D18AE6104874E739000D270E48B1
:1009700014F0D6F8300004F089FF7F427CE60022B4
:100980000021049810F036FE079BDAE6181C0020C0
:100990001C1C0020201C00201CD20110F0D30110D0
:1009A00024D4011038D4011084D10110014B1860F7
:1009B0007047C046201C0020014B18687047C04695
:1009C000181C0020014B18687047C0461C1C0020F2
:1009D000F0B595B013F06EFF0C2012F021F90C2247
:1009E0000021040012F010F90CF032FE051E56D161
:1009F0002100374813F0AEFF364F37493800374AE9
:100A00000CF0CEFD2100364B6A46A360354B083111
:100A100001A8009300F0A0FB5021334814F080F8A7
:100A20002E2005F033F8061E47D050222F4904F03F
:100A30009FF9002838D10121300004F013FA20601A
:100A400000283ED0210004F09BFD2949206804F0D5
:100A5000C5FD3900274814F063F82571FA2080009D
:100A600001F044FD2379002BF8D02068002807D03E
:100A7000002104F085FD206805F0D0F900232360F3
:100A800001A800F087FB0CF01DFE1B4813F0C4FF0B
:100A90000C21200012F0C8F8280015B0F0BD17484E
:100AA00013F0BAFF0125F7E75021154814F038F884
:100AB000144813F0B1FF0125EEE7134813F0ACFF23
:100AC000F6E7124813F0A8FF300005F0A7F9EFE7AA
:100AD000590300109CD4011090D401100400400070
:100AE000C0A80401FFFFFF00A8D4011014F70110F3
:100AF000D50200100CD5011060D5011078D401107A
:100B0000DCD4011048D50110C4D40110F8D4011070
:100B1000F0B5CE46474680B59F4C138906001500B8
:100B2000A544F22B09D8280003F074FD93239B0001
:100B30009D44C0BCB946B046F0BD892200232800C0
:100B4000920009A903F09CFEF228ECD924216A4600
:100B500002239A2752181370310004220DA812F0B4
:100B600059F87F00002345A90AE0922292009C18C0
:100B70006C44343CFF3C247802341B19BB42D2DA6B
:100B8000CA5CC818FF2ACED0352AEED18378012B53
:100B900000D10DE1032BC6D19A24002364000AE0A2
:100BA000922292009A186A44343AFF3A127802323A
:100BB0009B18A342B7DACA5CC818FF2AB3D0322AFE
:100BC000EED1827833789A42ADD1C27873789A4266
:100BD000A9D10279B3789A42A5D143791C00103C7F
:100BE000E4B29846072C9ED80134E700F719062294
:100BF000380010A917F068F800280CD00622380039
:100C0000664917F061F8002800D08CE7062238000A
:100C100010A911F0FFFF01F07FFD002900D18AE249
:100C2000FA220023920011F0F9FB02005C49E30074
:100C30008C466244F318120CDA8037226B469B18FC
:100C4000424624271A7069463622F023FF32C9191A
:100C5000CA526946313A0233FF3AC919CA546B463F
:100C60003D3241219B186A4640205218694644464D
:100C70001B780918127809789C46069436236C462E
:100C8000E41824786B46059435241B191C786B46B0
:100C9000049434241B191C786B4603942124DB191B
:100CA0001C5D6B4602942024DB191C5D6B4601948D
:100CB00043241B191C783B486346009413F030FF13
:100CC00024276946F32336221A200424C919CA545A
:100CD000FF300133CC5404223100684411F09AFFF4
:100CE0006946F92301222020C919CA54FF30013373
:100CF000CC540422311D684411F08CFF6946FF2357
:100D000003222620C919CA54FF300133CC540422CF
:100D10003100684411F07EFF0623694606222C202C
:100D2000C919FF33CA54FF300133CC5404223100B7
:100D3000684411F06FFF0C2368463322C019FF335B
:100D4000C254194B68464C938823C1195B00B33ACF
:100D5000CA52A0228921154B3620920049005F68B3
:100D600003F000FB041E00D1DDE68922406852003A
:100D700009A911F04FFF01235B42B06C0893002FCB
:100D800000D18EE121000097453308AA08F0C8FE83
:100D9000200003F03FFCC6E6B4FDFFFF10F4011095
:100DA000005C260570D50110040001514C3800206C
:100DB000370008370622380010A916F085FF041EF8
:100DC00072D0CF4B062219003800984616F07CFFEF
:100DD000431E9841F389CB4A1B041A439146C40031
:100DE00001F09AFC002900D161E1FA22002392006F
:100DF00011F014FB4B46181A00D585E13700103767
:100E00000622380010A916F05FFF002800D190E1FB
:100E1000082C5CD00024370018370622380010A9AF
:100E200016F052FF002800D18BE1082C70D037005B
:100E300020370622380010A916F046FF002800D1FE
:100E400081E1082C00D185E03700283706223800E0
:100E500010A916F039FF002800D176E1082C00D146
:100E60009AE0370030370622380010A916F02CFF20
:100E7000002800D16BE1082C00D1AFE037003837F3
:100E80000622380010A916F01FFF002800D160E1EB
:100E9000082C00D1C3E03000062210A9403016F023
:100EA00013FF002800D1FAE037226B4624219B185B
:100EB0006846362210341C70F0234018FF32C252AC
:100EC0006846343A0233FF3A4118CA54F8E606221B
:100ED0004146380016F0F8FE002800D1073CF38A9E
:100EE000884A1B041A43914601F016FC002900D1E0
:100EF000E2E0FA220023920011F090FA4B46181A11
:100F000089D506220021380011F07EFE012482E7F7
:100F100006224146380016F0D7FE002800D1063CD4
:100F2000F38B784A1B041A43914601F0F5FB002924
:100F300000D1C6E0FA220023920011F06FFA4B466E
:100F4000181A00D473E706220021380011F05CFE65
:100F500002246CE706224146380016F0B5FE002850
:100F600000D1053CF38C674A1B041A43914601F0FB
:100F7000D3FB002900D1A9E0FA220023920011F04E
:100F80004DFA4B46181A00D45EE7062200213800BD
:100F900011F03AFE032457E706224146380016F0C6
:100FA00093FE002800D1043CF38D564A1B041A43DB
:100FB000914601F0B1FB002900D18CE0FA22002318
:100FC000920011F02BFA4B46181A00D449E706227A
:100FD0000021380011F018FE042442E706224146A1
:100FE000380016F071FE002800D1033CF38E454A0C
:100FF0001B041A43914601F08FFB002970D0FA229E
:101000000023920011F00AFA4B46181A00D435E773
:1010100006220021380011F0F7FD05242EE70622F4
:101020004146380016F050FE002800D1023CF38FF4
:10103000344A1B041A43914601F06EFB002954D038
:10104000FA220023920011F0E9F94B46181A62D4F3
:1010500040239946B1440622484610A916F034FEB2
:1010600000281CD0082C74D106224146484616F0B0
:101070002BFE002800D1013C4623F35A214F1B04CC
:101080001F4301F049FB002934D0FA2200239200CB
:1010900011F0C4F93F1A45D4082C00D143E50724C8
:1010A00002E74423210008AA08F05EFD70E6FA2159
:1010B000890011F075F99DE6FA21890011F070F9A7
:1010C0001CE7FA21890011F06BF938E7FA21890051
:1010D00011F066F955E7FA21890011F061F972E71C
:1010E000FA21890011F05CF98EE7FA21890011F0EC
:1010F00057F9AAE7FA21890011F052F9CAE7C04668
:1011000010F40110FFFF000006220021380011F04A
:101110007BFD002472E606220021380011F074FDE8
:101120000624B8E606220021484611F06DFD07248A
:10113000BAE60124B8E6FA21890011F031F902007B
:1011400074E50224B0E60324AEE60424ACE60524EC
:10115000AAE60624A8E6C0460B6810B5036013682B
:101160000400436040220021083011F04DFD08F0DA
:1011700089FDA064002808D02200044908F05EFD23
:1011800043220349A06C08F0ADFB10BD110B001009
:1011900014F7011010B50400806C002803D008F08B
:1011A00053FD0023A36410BDF8B5FFF705FC040050
:1011B000FFF708FC074E05003368074FA34202D132
:1011C0003B68834204D06019FFF7F0FB34603D6058
:1011D000F8BDC046101C0020141C002010B508F0FB
:1011E00081F910BDF8B501230B72040008F0AEF9C7
:1011F0000500431C0BD10F4B186859680E4B226831
:101200009860D9601900200052699047F8BD01F03C
:1012100083FAFA2206000F00002328000021920022
:1012200011F074FC801979410029E7DA01200349A3
:101230004042E3E718F4011048110020FFFFFF7F50
:1012400070B5094D04002B78002B08D00123074905
:1012500020000B722368DB699847012070BD02F003
:1012600073F801232B70F1E781E300206011002067
:1012700010B50400036804499B699847236820005F
:1012800002491B6A984710BD4811002060110020D8
:10129000002070477047C04610B501F03DFA0029A4
:1012A00005D0FA220023920011F0B8F810BDFA21FF
:1012B000890011F075F8F9E78368002B04D107E085
:1012C0001A68002A06D013008B42F9D1002005E0ED
:1012D000030008331960002301200B607047C046EB
:1012E000020083680832002B04D109E01A001B6851
:1012F000002B05D08B42F9D11B680120136000E060
:10130000002070474368002B04D107E01A68002AC8
:1013100005D013008B42F9D1002004E0031D1960B1
:10132000002301200B6070474368021D002B04D18D
:1013300009E01A001B68002B05D08B42F9D11B680D
:101340000120136000E000207047C046F0B557460A
:10135000DE464646C0B53E4B82B01A685B680092D6
:10136000019383688246002B2CD0082353449B466C
:1013700001F0D2F953469B6804000D005F46002B34
:1013800020D000221E0094469846B268F3682000E0
:101390002900801A9941002902DB14001D00BC4677
:1013A00037003668002EF0D162464346002A48D006
:1013B000116850460B6813604B68984753469B680A
:1013C000002BD5D153465C68002C29D00025564609
:1013D000237A002B31D021006368257230009847B2
:1013E0002468002CF4D1B168B246002918D0009CC2
:1013F000019D0E0003E004000D00002E0ED033000E
:1014000022009868D9682B00121A8B413668002B8D
:10141000F1DCF2D1002AEED1002EF0D1009401953A
:10142000009B019C5246180021001361546102B0D8
:10143000E0BCBB46B246A846F0BD2468002CC7D12C
:10144000D1E7190053465C68002CBFD1CFE7C046F6
:1014500018F401108023DB051868000F7047C046A0
:101460000FB400B5084883B013F0D6FA049B002BE4
:1014700007D005A91800019113F08AF8034813F06A
:10148000CBFA012013F09CF8BCD501101CF0011020
:1014900070B50F4C0F4D104A24184D41A900A00FF4
:1014A0000843A90F69400D4B604011F02FFB4A0122
:1014B000C30E1343CA0E58405140094B094A11F05C
:1014C00025FB4A00C30F1343CA0F5840514070BD5B
:1014D000157C4A7FB979379EB9E5E41C6D4758BF42
:1014E000BB49D094EB113113F0B504684568060090
:1014F00023002A00C6468068F16803430A4300B50A
:10150000134304D101F008F903000B43FAD023067A
:101510002A0A60402F061A43230A3B43070CBC46A5
:1015200069404B40984663460F041F434240030402
:101530005A4043467B4032607360C20E4B011343F6
:10154000C90E40010843B360A10FAB000B43A200DA
:1015500012196B41F060D101580E520EDB010843A5
:101560001A4304001500430FD1001943C0000019AD
:10157000694180BCB846F0BDF0B5DE4657464E46E0
:101580004546E0B5AD4C97B005942478002C00D1C9
:10159000D5E00EAB0D93AA4BAA4F0293AA4BAB4DCD
:1015A0009B465B461E685C689B680B935B46DB68EA
:1015B0000C93A74B05931B78DBB2069301F0ACF8B4
:1015C000FFF766FFA34B70409B69614008900A914A
:1015D000DB0433D5A04BDA6BE0231340402B2DD036
:1015E000EFF3058399469D4B3E68984600239A4643
:1015F0002B004D467C68994630002100002D1AD002
:1016000001F0C8F8EFF3108272B643461B68002B56
:10161000FBD0BFF35F8F3B68B34212D0BFF35F8F45
:1016200043465146196082F310883E687C6830005A
:101630002100002DE4D100F0F1FEE3E710F0A4FD5D
:10164000CEE77B68A342E9D1824B1400DE6901F04A
:1016500063F80A220023801859414D4602000B1EF0
:1016600002DA01227E4B52420CC72A686B681000D6
:101670001900012780185941374007430022009084
:1016800001912F606960BFF35F8F744B1A6084F320
:1016900010887449029B8C461B787349DB006344B5
:1016A0009868884249D00021FFF7F2FE089D0A9C05
:1016B00045404C40EFF3108672B6684A1368002B21
:1016C000FCD038000199FFF7E3FE0B9B58400C9BC0
:1016D0005940BFF35F8F059B069A1B78934208D051
:1016E0005B460CCB5C405B4655409A68DB685040DB
:1016F00059405F460D9B0E955C609860D96018005C
:10170000FFF7F2FE109A119B0E9C0F9DBA60FB60D2
:10171000059A3C607D6013780133DBB21370BFF330
:101720005F8F00224D4B1A6086F3108817B0F0BC13
:10173000BB46B246A946A046F0BD9A60B3E74B4B04
:10174000009001919C464A4B4A4C9846A1466568D8
:101750002468A10DAB02A2020B431000190000196E
:1017600069410290039102990027890E8A460399E4
:10177000890101915146019808430299019089011C
:10178000009100980199001BA9410D0061460400D9
:1017900040C98C46A4197D414145DAD14B461C60B5
:1017A0005D600EAB1800069407950D9300F02EF9BE
:1017B0000E9B0F9C08930994264B9B69DB0400D475
:1017C000FAE0254BDA6BE0231340402B00D1F3E025
:1017D000EFF305839A46402300249B4600230093A1
:1017E00001941E4B5C469846164F0023994653467B
:1017F0003D687E68A24628001C003100002C1AD0EB
:1018000000F0C8FFEFF3108272B643461B68002B4E
:10181000FBD0BFF35F8F3B68AB422DD0BFF35F8F30
:1018200043464946196082F310883D687E68280067
:101830003100002CE4D100F0F1FDE3E78BE3002060
:101840007EE30020081B0020D0000020C000002004
:101850007FE300200000064000800040300100D0FF
:10186000FFFFFF7F00000340FFFFFF00001C04207C
:1018700000200420C80000207B68B342CED12300A2
:10188000160054469A46009A019B100019008018D1
:101890005941504BDA6901231340034300930191EE
:1018A00000F03AFF0A2200238018594102000B1E63
:1018B00002DA0122484B52423A607B60012C66D129
:1018C000464DA346009B019C2B606C60BFF35F8F6D
:1018D0000023434C236086F3108800F01DFF8046F0
:1018E0008946EFF3108672B62368002BFCD0BFF355
:1018F0005F8F059B1B78002B52D13A4BDA681F2A69
:101900005DD05A691F2A5CD0DA691F2A5FD05B6AF2
:101910001F2B59D010F038FCFF23FF223249DB0087
:101920000A70324A02919446009801990522634454
:101930005A60FFF7ADFD82460C0006980799FFF745
:10194000A7FD5346614058401290139140464946C6
:10195000FFF79EFD80460C0008980999FFF798FD57
:10196000434658406140149012A81591FFF7BCFD02
:10197000149815991E4B9B46129A139B5C46226045
:1019800063600123059AA060E16013700CE0BFF36F
:101990005F8F00234246136086F31088013C24E7E2
:1019A000114B0293124B9B46BFF35F8F00220C4BEF
:1019B0001A6086F31088F4E510F0E6FB08E70023D0
:1019C0009B465B46DAB2A9E71C3B9B46F9E702233C
:1019D0009B46F6E700000640FFFFFF7FC0000020A7
:1019E000300100D0000003407EE3002008000340E7
:1019F000D000002010B5FFF7BFFD10BD10B50248A4
:101A000000F0E0F810BDC046FCE1002010B508224F
:101A1000014911F0FFF810BDFCE1002030B54B1E6C
:101A2000012900D1A7E0664A11780D092C00303455
:101A30009F2900D9A2E00470012B00D1BEE00F2144
:101A4000147821400C003034092900D998E0447002
:101A5000022B00D1B2E054782509290030319F2CA7
:101A600000D990E08170032B00D1A7E00F21214025
:101A70000C003034092900D987E0C470042B00D150
:101A80009CE094782509290030319F2C00D97FE013
:101A90000171052B00D191E00F2121400C00303461
:101AA000092900D976E04471062B00D186E0D4786C
:101AB0002509290030319F2C00D96EE08171072B58
:101AC00000D17BE00F2121400C003034092966D879
:101AD000C471082B00D171E0147925092900303137
:101AE0009F2C5FD80172092B68D00F2121400C0078
:101AF0003034092958D844720A2B5FD0547925090B
:101B0000290030319F2C52D881720B2B56D00F21D7
:101B100021400C00303409294BD8C4720C2B4DD015
:101B200094792509290030319F2C00D907310173A0
:101B30000D2B43D00F2121400C003034092901D94D
:101B400037310C0044730E2B38D0D1790C092200A8
:101B500030329F2900D9073282730F2B2ED00F22EB
:101B60000A4011003731092A01D830321100C173FF
:101B7000102B23D010300023037030BD07345AE7F8
:101B800037310C0063E707316CE737310C0074E73D
:101B900007317DE737310C0085E707318EE73731B4
:101BA0000C0095E707319DE737310C00A3E70731BB
:101BB000AAE737310C00C4720C2BB1D1C018DAE798
:101BC000FCE1002010B588B004000D220021684619
:101BD00011F01AF80D22002104A811F015F84B237A
:101BE0006A466846137004A90D221BF009FA1521F4
:101BF00008222000694411F00DF808B010BDC0465D
:101C0000EFF3108072B6034A1368002BFCD0BFF3C9
:101C10005F8F70472C0100D0BFF35F8F0022024B13
:101C20001A6080F3108870472C0100D070B5EFF374
:101C3000108C72B60D4D2B68002BFCD0BFF35F8F5C
:101C40000724CB08C618C05C01230C40A3401C002D
:101C50000440034207D118433070BFF35F8F2C60FC
:101C60008CF3108870BD1000FFF7FAFB2C0100D038
:101C7000F8B54746CE46884680B5EFF3108C72B66D
:101C80001C4D2C68002CFCD0BFF35F8F9A4222D8E9
:101C900007210126894602E00132934218D34D46BE
:101CA00037001540AF40D4080119045D2742F3D135
:101CB00010003C430C70BFF35F8F00220D4B1A6085
:101CC0008CF3108800280EDBC0BCB946B046F8BDC6
:101CD00001204042EFE7BFF35F8F00232B608CF3BE
:101CE0001088012040424346002BEDD00898FFF7B2
:101CF000B7FBC0462C0100D030B5EFF3108C72B6A4
:101D00000A4C2368002BFCD0BFF35F8F072301220E
:101D10000B409A40CD08435D93434355BFF35F8F1B
:101D2000002323608CF3108830BDC0462C0100D006
:101D3000044A1078431CDBB2172B00D91023137010
:101D40007047C0467011002010B5064B064C82B09B
:101D50000100009318221F232000FFF789FF02B023
:101D600010BDC046CCD501105C2500200021044BDD
:101D7000044ABFF35F8F02C39342FAD17047C04653
:101D8000000100D0800100D0002310B50100988A26
:101D90001B8B984710BDC046162310B5010018884C
:101DA00002331B88984710BDF8B54746CE4680B52C
:101DB0000F1E18D014239946043304000025012671
:101DC00098464B461888434621681B88984701C4AB
:101DD000431E984101350640AF42F2D13000C0BCED
:101DE000B946B046F8BD0126F8E7C046002370B5F5
:101DF00004000D00988A05491B8B984703000020BA
:101E0000002C01DB0130A04029009847554200001A
:101E10000A4B1968EFF3108072B60A68002AFCD0EA
:101E2000BFF35F8F1B68BFF35F8F00221A6080F3E0
:101E3000108840BF002000217047C0460CE30020FE
:101E4000F0B5DE4657464E464546E0B587B0EFF35F
:101E50000583032201251A40954091008846A94632
:101E6000B34B03925C58B34B1D60B34B04934B468A
:101E7000B24843630823E55E002D37DAA3881BB21E
:101E8000002B00DBADE0A379002B00D0EEE00823AF
:101E9000E05E002820DB430062691B18DB00D318DA
:101EA0009E68DD68731C00D111E1A4480100414423
:101EB000826A0B69B71A9B1A9F4215D30123026AE3
:101EC000039883401A420FD09C4800F01DFC8D42BD
:101ED00002DCCCD18642CAD940BF07B0F0BCBB46B9
:101EE000B246A946A046F0BD0E61EDE762696B00FF
:101EF00092465B19DB009A4453469E68DF6800F007
:101F000003FC8F42BADC00D103E1002F00DAE8E0E5
:101F10005246534652691B699346049A934200D134
:101F2000D9E052460821605E5288000459461043A9
:101F30009847009001910099019A0B0010001343FB
:101F400000D1CEE013000A00B61A9F41002806DB3C
:101F50007A4800F0D9FB009E019F36184F41534646
:101F60009E60DF6000229A5E002A00DA86E7530056
:101F700099186069C900411802938B68C9689B462B
:101F8000B94200DD7AE702D1B34200D976E70823EF
:101F90009C46A444059565462281A446029B2C00DC
:101FA00006E053009918C90041188D68C968AB460E
:101FB0009B18DB00C318B94206DC00D1B3E01C005B
:101FC0000023E25E002AECDA230064469C46534676
:101FD0001A806346059D1D80A3881BB2002B00DA82
:101FE00051E72269EFF3108172B61368002BFCD021
:101FF000BFF35F8F0123A7885B42A3803FB22369B1
:10200000BFF35F8F00221A6081F31088002F00DA7F
:1020100039E72300083322009A4666697B00DB1902
:10202000DB00F318996850468C460824115FDD6880
:10203000002910DB029306E0AB4244D00023E15EAE
:102040002000002906DB4C006418E4003419E36822
:10205000AB42F1DD029B078000201F5E1980002F3C
:10206000DCDA1400A379002B00D110E70023A37160
:1020700026000823E15E08364B1C00D12CE708003F
:10208000A246656902E03E004B1C1AD04B005B186B
:10209000DB00EF180A008C46E95E7B881BB2002B40
:1020A000F1DA01235B42DC17BB60FC60824205D0A1
:1020B000534631801B893B8053461A8160464B1C36
:1020C000E4D15446E5E6A3686345B7D9C2E76B1C83
:1020D00000D0EAE6F8E65B4658461B6998470028B8
:1020E0001BD153461B8822692381EFF3108372B6FC
:1020F00011680029FCD0BFF35F8F514662880A80C7
:1021000022696580BFF35F8F0021116083F310881F
:10211000B4E6864200D8F8E6B0E65B461A685B682B
:102120000092019307E7B34500D848E74CE7C04663
:102130001CD200203C700540411E001000400540AC
:1021400070B52E4C2569002D04D00A212C4800F0D2
:1021500027FE70BD2B4E0321300000F0CBFAE66065
:10216000FFF7E6FD284B03229C46D02322701B0676
:102170001B6801216370254B6044A3600F2380001E
:1021800020610220638063694942A1801980023185
:10219000198647311D83585218315A5275325C39AD
:1021A000995218320131995218320131995218322C
:1021B00001319952083518329D5202311832995224
:1021C00018320131995218320131995218320131C5
:1021D00099521832013199521832013199520C4BEF
:1021E0000C49DC600130356200F02EFB0121032038
:1021F00000F0F2FA084B1D60A7E7C04674110020FA
:102200000CE300200040054040000034FFFF1000B8
:102210001CD20020411E0010386005400048704765
:1022200074110020F8B51F0008AB1B7804001600DD
:10223000002B08D100F070FA32003B00121A8B41DB
:10224000002B00DA52E02269EFF3108072B61368B7
:10225000002BFCD0BFF35F8F0223E15E63694A006D
:102260005218D2009B182269002936DB1D88658030
:10227000BFF35F8F0025156080F31088069A9E607B
:10228000DF601A61079A5A615A8801325204520C6F
:10229000101C002A1FD082B25880080410432669FF
:1022A000EFF3108772B63268002AFCD0BFF35F8F5D
:1022B000A2881A80A1802369BFF35F8F00221A6071
:1022C00087F310880A4923788C4601329A40E368E4
:1022D00063441A60F8BD0120DDE7BFF35F8F002380
:1022E000136080F3108801204042F3E70020F1E7FB
:1022F0003C20000070B501000469EFF3108C72B649
:1023000020680028FCD0BFF35F8F02200D5E4C696F
:1023100068004019C00024180869002D36DB2688A3
:102320004E80BFF35F8F002606608CF31088E36059
:1023300063880498013320615B0405985B0CA260FC
:1023400060611A1C002B1FD093B2280462801843CE
:102350000A69EFF3108C72B61368002BFCD0BFF340
:102360005F8F8B8823808D800B69BFF35F8F002286
:102370001A608CF310880B7801329A40CB680849B8
:102380008C4663441A6070BD0122DDE7BFF35F8FA6
:10239000002303608CF3108801204042F3E7C0461D
:1023A0003C20000010B543890A1493421ADD530003
:1023B0009B184269DB00D3180469EFF3108C72B6E6
:1023C0002268002AFCD0BFF35F8F5A88090494B2B8
:1023D000090C8A4208D00369BFF35F8F00221A609C
:1023E0008CF31088002010BD8022120214435C8000
:1023F000012302698371BFF35F8F002111608CF3A9
:102400001088044902788C469340C26801206244D7
:102410001360E8E73C20000040787047F0B5060004
:102420000F0006246442E517C646A4197D4100B595
:1024300082B08D4214D811D000F06EF922002B002A
:10244000121A8B41002B15DC002B44D030003900D0
:1024500000F0A0F902B080BCB846F0BD8442EBD9D0
:102460000024002500F058F922002B00121A8B419D
:10247000002BE9DD00F050F922002B00121A8B41ED
:10248000002B0ADB00230193144B22000093144815
:102490002B00FFF72FFF0130D8D0A04629000024E1
:1024A000104A1148536A994204D8956A4545CDD2DD
:1024B0009942CBD10568EFF3108C72B62B68002BD4
:1024C000FCD0BFF35F8F0368BFF35F8F1C608CF39A
:1024D000108820BFE6E7002AB8D0CBE7111E001015
:1024E00074110020004005400CE30020F0B5C64602
:1024F00000B582B0040000F00FF9FA2206000F00C8
:10250000200000230021920010F000FB8019794187
:1025100004000D1E02DA01242E4D64420626764286
:10252000F71736196F41AF4214D811D000F0F4F804
:1025300032003B00121A8B41002B15DC002B46D0D9
:102540002000290000F026F902B080BCB846F0BD9A
:10255000A642EBD90026002700F0DEF832003B004F
:10256000121A8B41002BE9DD00F0D6F832003B0057
:10257000121A8B41002B0ADB00230193164B320009
:10258000009316483B00FFF7B5FE0130D8D000237A
:102590003900B0469C46124A1248536A994204D800
:1025A000966A4645CCD29942CAD10668EFF31087A5
:1025B00072B63368002BFCD0BFF35F8F0368BFF3A4
:1025C0005F8F66461E6087F3108820BFE5E7002A0C
:1025D000B6D0C9E7FFFFFF7F111E00107411002065
:1025E000004005400CE30020F0B557464E46DE465D
:1025F0004546E0B506000F0085B0EFF30583994628
:102600008B46002B12D0384900204B6ABB4206D3C0
:102610008A6ADB1B591E8B41B2424041184305B008
:10262000F0BCBB46B246A946A046F0BD2F4B9A4629
:10263000DB68984653461B784046039300F064F8E5
:102640004246039B040004339B009B580D001B1A59
:1026500039003000001BA941894510DC0DD020BF96
:10266000214A0020536A5B45D9D3926ADB1B591E6D
:102670008B41B24240411843D1E78342EFD900F089
:102680004BF832003B00121A8B41002B1ADB00235F
:102690000193174B3200009350463B00FFF72AFE90
:1026A000011E0FDD104B5A6A5A451BD39B6AB34279
:1026B00016D35046FFF776FE0B4A0020536A5B455F
:1026C000ADD3D2E7084A0020536A5B45A7D3002068
:1026D000926ADB1BB24240415A1E934118439EE767
:1026E0005A45E6D120BFE4E70040054074110020C0
:1026F000111E001010B5024A0248FFF797FA10BDEC
:10270000E8D50110602500200300416A0A00986A9C
:10271000596A8A42FAD17047034B596A0A00986A8B
:10272000596A9142FAD170470040054070B50400E3
:102730000D00174A536A1900966A536A8B42FAD100
:102740003000190024184D41AB4216D813D0104B5D
:102750002A005B6A9D4203D90D494B6A9342FCD320
:10276000934207D10A4A02E0516A994202D1916A22
:10277000A142F9D370BDA642E9D9054B5B6A1C00A2
:102780005A1CEFD0012201246442E5175242E3E7CC
:1027900000400540064A536A9942FCD807D1044BD1
:1027A00002E05A6A914202D19A6A9042F9D870477F
:1027B00000400540054B064A1360064A136053600B
:1027C0009360D36013615361936170478080808010
:1027D00000E400E004E400E01F2318401E3B8340B7
:1027E000002905D0C021044A4900535013607047A6
:1027F000802201498B50FAE700E100E0012282408B
:10280000034B1B6813405A1E9341D8B27047C04611
:1028100000E100E001238340014A13607047C04695
:1028200000E200E0064B10309B688000C358054A68
:1028300000209B1A2F229A424041C0B27047C046E6
:1028400000ED00E08C11002070B50D00EFF3108654
:1028500072B60F4A1368002BFCD0BFF35F8F0D4B8D
:1028600010309B6884001B590B4A934203D09D4251
:1028700001D00FF089FC074B9B681D51BFF35F8FA0
:10288000BFF35F8F0022024B1A6086F3108870BD81
:10289000240100D000ED00E0CD010010F0B5574656
:1028A0004E46DE464546E0B585B00600009117006D
:1028B000EFF3108B72B66A4A1368002BFCD0BFF39B
:1028C0005F8F0025674B5D579A46002D00DAA9E01F
:1028D0006B00654C01935B199B009846A146C1446F
:1028E0004B4652469B7910361370604BB6009B687E
:1028F00099590B1B2F2B33D95D4B994200D0ACE07B
:10290000019B42469C465B4B6544AD0063535A4B6A
:102910000232A218043B9B1A1B05584A5B0D65192D
:1029200013436B80564B0121AB80FF23AB71009B9F
:10293000EF71AB604B460B4319004C4B9B689951B0
:10294000BFF35F8FBFF35F8F0022454B1A608BF39D
:10295000108805B0F0BCBB46B246A946A046F0BD03
:1029600001200A008243D3798C46BB4231D84546C8
:10297000130044491B1B5B415943090D3D4B6353F5
:102980003D4B02356519043B5B1B1B053B4D5B0D45
:102990002B43AA464D466B800425AC465546E04481
:1029A000131F44441B1B1B055B0D1D434B469971B4
:1029B00000999D8099604946DF71334B0143136054
:1029C000BBE75800C01880002018C179B9422FD940
:1029D00002000623D356002BF3DA02932B4B6146F9
:1029E0000393131D9A4604235B429C46E1445046E0
:1029F0004B461B1A1B055B0D9C46204B9571984658
:102A00006346404603439380019B5A199200039BFF
:102A1000A418A380029B1C4AA371009B2260E7714B
:102A2000A3608AE70FF0B0FB002553465D574FE7E0
:102A3000908802934005131D9A46031561469C46F3
:102A40004046D444634604302018181AE023000599
:102A5000400D1B0218430390C5E70FF095FB4FE7AD
:102A6000240100D084E300208C11002000ED00E060
:102A7000CD01001000A1FFFFBC11002000E0FFFF0E
:102A800001BDFFFFAAAA00000148804701BD000068
:102A9000F0B5DE4657464E464546E0B50C0083B0DD
:102AA000EFF3108872B6634A1368002BFCD0BFF3B3
:102AB0005F8F614B61499A68030010339F00D559BD
:102AC00001938D4243D0A54254D05D4EAA1B2F2ABC
:102AD0003DD85C4B9B461B68994601231A009C46D7
:102AE00082404B4613401F22994663460240934062
:102AF0009A4680225B4650469850BFF35F8FEFF3B3
:102B000005839B46002B37D0019B5B4501D00FF01E
:102B10003BFB01232A009A439068844208D176E067
:102B20004B005B189B00F3189868844236D01A005B
:102B3000062151560029F3DA844254D04B46002B2B
:102B400027D0C02251463F4B5200995019603A4B52
:102B50009B68DD51BFF35F8FBFF35F8F0022354B62
:102B60001A6088F3108803B0F0BCBB46B246A94691
:102B7000A046F0BD0D00EAE72A0063469A4390683C
:102B80008442D5D106201056130000280ADA0D0021
:102B900031E0802351462B4AD150D8E70620185601
:102BA000002821DB42001118890074188B46A168A7
:102BB0009960E179D971062161569971002924DB68
:102BC000A488F11A640524155C44091909051E4CF2
:102BD000490D2143998013181C4A9B001178F31862
:102BE00099711070AAE713005946002914D1FF31DA
:102BF00091711749918015490A789A71154A9B1B62
:102C00005B415A43120D0A7098E71149E2E706202A
:102C1000105613000028C5DA0F4A1049D21A083A94
:102C20005002400D014399800D4952080A43DA8051
:102C300084E7C046240100D000ED00E0CD01001083
:102C40008C11002000E100E000E0FFFF84E30020A1
:102C500001BDFFFFAAAA0000C611002000F0FFFF7F
:102C600000F8FFFF10B58308040003202040FF2474
:102C7000054AC0009446844081409B0063441A6822
:102C8000A2430A431A6010BD00E400E070B50124BD
:102C90000443EFF30581EFF3108C72B6214A1368F9
:102CA000002BFCD0BFF35F8F1F4B05001F4AED1AAE
:102CB0006D416A43120D1E4D8900AE6852B27658BE
:102CC000A6421CD00621595691421CD012215956B9
:102CD000914222D01E215956914220D02A21595684
:102CE0000324914210D0134B19781A708171BFF3ED
:102CF0005F8F00220B4B1A608CF3108870BDAB689D
:102D00000D4C5C50EFE700246100091989005B1845
:102D1000FF21997109499980E5E70124F4E702242C
:102D2000F2E7C046240100D08C110020AAAA0000BE
:102D300000ED00E084E30020CD01001001BDFFFFA5
:102D40001F2110B5091A0248FEF7D6FF10BDC04674
:102D50008FE3002010B5084B084C82B001000093AF
:102D6000002205232000FEF783FF002801DB1F233C
:102D7000181A02B010BDC0460CD601108FE3002017
:102D800070B504000E001500FEF7D2FF0100200010
:102D900000F006F8A680E580BFF35F8F70BDC046E7
:102DA000024B9C466144890001607047400000343A
:102DB00070B5114C114DAC420FD2FF262368002B89
:102DC0000CD0FEF7B5FF01002000FFF7E9FFA68059
:102DD000BFF35F8F0834AC42F0D370BDFEF7A8FF9D
:102DE00001002000FFF7DCFF2671BFF35F8F08347E
:102DF000AC42E3D3F1E7C0462C190020341900207F
:102E000010B50400FEF794FF01002000FFF7C8FF93
:102E1000FF232371BFF35F8F10BDC04610B50400C0
:102E2000FEF786FF01002000FFF7BAFFFF23A38013
:102E3000BFF35F8F10BDC04610B504000120FEF740
:102E400083FF034BC3189B002360BFF35F8F10BD4C
:102E500040000034034B9C46614489000160BFF38D
:102E60005F8F704740000034F8B5DE464E46574647
:102E70004546E0B58B4605000A99180016000FF08C
:102E80008FFA0A9B6C001F02324B64199C46A40007
:102E90006444636881469F4200D967602B1FDBB2A0
:102EA0009846012B30D9C02380229B01E3181201E0
:102EB0001A60294BAD0059599A4600291BD173015C
:102EC000E026226853401E40802342465B01E318FF
:102ED0001E60012A30D9802380229B01E318120151
:102EE0001A6053464A4667605A51F0BCBB46B24628
:102EF000A946A046F8BD58690FF052FA01304300C8
:102F00001B18033BFDD2DAE75B46012BCBD1C02374
:102F100003229B01E3181A60023AA3681A42FCD00C
:102F20007301E0262268AD0053401E4080230A4A08
:102F30005B019246E3181E605A4621685140032205
:102F40000A401A6001225B469A40A3681A42FCD0EC
:102F5000C1E7C0460080004068250020F0B5464625
:102F60004F46D646C0B51F00344B44009C4624183B
:102F7000A4006444636888461600FF2B02D88023AF
:102F80005B006360031FDBB29A46012B30D9C0237C
:102F900080229B01E31812011A60294B85005959C0
:102FA000994600291BD17301E026226853401E4038
:102FB000802352465B01E3181E60012A30D980232A
:102FC00080229B01E31812011A6080235B0063607A
:102FD0004B465F51E0BCBA46B146A846F0BD5869C1
:102FE0000FF0DEF9013043001B18033BFDD2DAE796
:102FF0004346012BCBD1C02303229B01E3181A6067
:10300000023AA3681A42FCD07301E02622688500C8
:1030100053401E4080230A4A5B019146E3181E601C
:1030200042462168514003220A401A600123424669
:103030009340A2681342FCD0C1E7C0460080004024
:1030400068250020014B8000C0587047682500208B
:10305000094A83009A1810B51468402254408032FF
:103060002240064CC000A44663441A60044B9C46B0
:103070006044416010BDC04604C0014004D001401E
:1030800000400140074B8000C3181B68C900920034
:103090000A435A400C231340034A94466044036099
:1030A0007047C04604C0014004D0014080000029A0
:1030B00005D0064B9C460223604403607047044BD6
:1030C0009C46022360440360F8E7C04604E00140E8
:1030D00004F00140D0231B061B6830B505005842A0
:1030E00043412F205B4283430E48EC08844607206F
:1030F00028408000814020000B4D3C30634480001C
:10310000A40041511B19002A05D080229201944647
:103110006344196030BDC022920194466344196033
:10312000F8E7C0463041014000400140D023F0B5EF
:10313000C6461B0698461B680C4F9B001600FA58A3
:1031400004000D0000B5104209D1290014430D20E0
:103150003200FC50FFF7A2FB80BCB846F0BD0FF078
:1031600013F843461B689B00FA58EEE7E8E100209D
:1031700010B504000D20FFF78BFCD0231B061B6845
:1031800002499B005A58A2435A5010BDE8E1002062
:103190000123D0228340120693629361094A83007F
:1031A0009A1811684022514080320A400649C000F6
:1031B0008C4663441A60054B9C460523604443607B
:1031C0007047C04604C0014004D0014000400140A7
:1031D000F8B5040021481E0017000D000FF0E0F8BC
:1031E000010038000FF0DCF8069B36041B031E4379
:1031F0002368002B20DB1A4B1A49E3185A1E93410F
:103200008022920194465B421B0B174A1B036344C6
:103210001360164A13601F000A689743FBD1144BD2
:103220002560E2182123A06013602368002BFCDADC
:103230000823E6601360F8BD3F2322681340AB42C9
:10324000D9D1A3681B051B0D8342D4D1EE22E368BC
:10325000D2021340B342CED1EDE7C046001BB70007
:103260000040FDBF08C0004000E0004000F000400A
:103270000430000010B580241C4BE4051C600028BD
:103280001AD001231A4C18431A4BDC611A4C4440E3
:103290001C62596298628021144BC9051960174855
:1032A00017490860E021C9041960002A07D180226B
:1032B000144B12061A6010BD0E4BD861EBE7530198
:1032C0009B1A9B009A18802312015B049A4209D230
:1032D00013000D490B60074B5A608022094BD20541
:1032E0001A60E8E7094B1A00F3E7C04600B0054052
:1032F000D3C007B0008005402D3FF84FFCFF010010
:103300000820014000A005406C380020FFFFFF00AE
:103310008023024A9B000B43D36270470080054024
:10332000AA23064A1B0113608D235B00D360044966
:10333000044B19605368002BFCDA704700400240D0
:1033400000B0FA000060024010B501F065FC00F02A
:103350005DFB00F031FD00F0DDFD06F00BF901F042
:10336000E9FC00F085F906F077F810BD40BA80B2AC
:103370007047C04600BA7047F0B5C646584D0400C5
:103380002B68884600B5002B03D02A7A824200D1F0
:1033900079E0544E2701EB68002B02D02A7DA2422F
:1033A00067D0AB69002B03D02022AA5CA24256D082
:1033B0006B6A002B03D02C22AA5CA24229D03B19B5
:1033C0001B01F318DB7B002C32D0B27A022A65D0C5
:1033D000012C32D08D225200B25C022A62D0022C23
:1033E0002FD0414AB25C022A00D16EE0032B0DD8E7
:1033F0003E4D9B00585906F027FC00223F193F0123
:10340000F719FB7B9B005A510423FB7380BCB84621
:10341000F0BD3819000110304146AA6A30189847AB
:1034200000236B623B191B01F318DB7B002CCCD112
:103430008D225200B25C022A4CD02B4AB25C022A86
:103440003ED02B4AB25C022AD0D12A4AB25C9A42C0
:10345000CCD104223B191B01F318DA73D6E73819D3
:10346000000110304146EA69301898470023AB61EB
:103470009EE738190001103041462A6930189847F4
:103480000023EB608DE707013818164E000110305D
:103490006A683018984700232B607CE7F27B9A42D9
:1034A00096D1D6E72022FF32B25C9A42D1D0022CCC
:1034B000C7D00D4AB25C022A07D0032CC1D195E7D0
:1034C0000D4AB25C9A42BCD1C3E70B4AB25C9A4245
:1034D000F3D1BEE72022FF32B25C9A42E9D1B8E7CD
:1034E000B02F0020E82F00202A020000A02F00208B
:1034F0003A0300003F0300002F020000564BF0B5D6
:103500004546DE46574698464E460301E0B59B4683
:103510001D1843462D015C19E37A070089B0012B81
:1035200000D996E04D4A9B00D6580192002E00D15A
:1035300085E010354544280014F07EFFA0221230AB
:1035400081B29200362000F00DFF8146002869D03C
:1035500005AE0C22002130000FF056FB2089FFF74A
:1035600005FF01233080B3703100FF330C22484641
:10357000B38001F0BDF93A4B0C269A464346013D13
:10358000029703936A786F1C3B0000242E2A07D110
:103590005AE05A780134E4B2591C2E2A49D00B0063
:1035A000002AF6D1DA1B92B290461D002200B21812
:1035B000524534DC22003100484601F04DFA731CBC
:1035C0009BB2A41942463900484601F0CDF9A4B295
:1035D0002B78661CB6B2002BD4D1039B002231009D
:1035E00048469846029F01F037FA1E4B02340422E7
:1035F000049304A9A3B2484601F0B6F93B0001992F
:103600005B448C461B014344DA7ADB7B16499B0002
:103610009200585862443523494606F0A5FA4846B8
:1036200000F0F8FF09B0F0BCBB46B246A946A04680
:10363000F0BD5B1B9BB2984622000D00B7E700214E
:10364000FFF79AFEA672EDE700233D0000229846A0
:10365000ADE70648FDF704FFE82F0020E02F00202B
:10366000FEFF000000010001A02F002028D601105D
:103670007047C046012800D97047054B80000029DB
:1036800002D00A68C250F7E7024A1268C250F3E754
:10369000E02F002014F70110F8B54746CE46454EFE
:1036A000454B80B58D273400002598467F00A37ACE
:1036B000022B32D029D8002B1DD0404B9946FEF763
:1036C00099F9B37A80B2022B3FD0F35D022B42D03E
:1036D0004346F35C022B47D04B46F35C022B4CD0A5
:1036E00002230122A37200232081E37228002273A7
:1036F0006373FFF703FF01351134EDB2FF34042D7E
:10370000D5D1C0BCB946B046F8BD032B4ED1236815
:10371000002B13D10023A372EDE7237B013BDBB227
:103720002373002BE7D1637B0133DBB26373042B7C
:1037300029D023732800FFF7E1FEDCE7013B23607B
:10374000002BD8D10023A372D5E733898342B6D0AA
:10375000F35D022BBCD11733FF33F35A8342AED053
:103760004346F35C022BB7D18A239B00F35A834272
:10377000A5D04B46F35C022BB2D1CE239B00F35A6B
:103780008342ADD19BE7E37A002B08D10C4A526803
:10379000002A04D001226373E2722273CAE7002177
:1037A0002800FFF7E9FD0023A372A4E70548FDF711
:1037B00057FEC046E82F00202A0200003A0300000E
:1037C000E02F002040D601100123F0B51E00002597
:1037D0000640184205D0002951DD057801392D0237
:1037E000013003221300034010424FD1072963DD4B
:1037F0000822524294468C4467460F329743020097
:1038000004000832BF1822689A189A429B415B4212
:10381000D21863680834D3189342924152429B18DD
:10382000BC42F0D1CA086146013AD2008018891A18
:103830001A040830120C1B0C9B18012910DD028899
:103840009B18032905DD42889B18052901DD828824
:103850009B184A08013A520002398018891A02302E
:10386000012919D0EB181A0C1B041B0CD318180CC7
:103870001B041B0CC018002E02D180B2F0BD00202A
:10388000030600041B0C000E1843F6E7012911DDA6
:10389000038802390230A9E7FF2102788D431543DE
:1038A000ED182B0C2D042D0C5B19180C1B041B0C94
:1038B000C018E0E70023D3E71A00BCE7F8B5574685
:1038C0004E46DE464546E0B591460A9A8A4611685C
:1038D0001B680A04120C090C52181904090C52181E
:1038E0001B0C9B181A0C1B041B0CD3181F0C1B045D
:1038F0001B0C0400FF18002825D000239B46FF3333
:1039000001269846658960682900FFF75DFFC019A8
:10391000070C0004000C3F182E4209D05B464146BC
:1039200073403A069B463B0A120C0B401A431700A1
:103930002468002CE6D15B46002B04D03A063F04F5
:10394000120C3F0E17435046FFF710FD0400484687
:10395000FFF70CFD2318DB191A0C1B041B0CD318E2
:10396000180C1B041B0CC018C04380B2F0BCBB4633
:10397000B246A946A046F8BD10B582B0049C00949A
:10398000FFF79CFF02B010BD10B5FFF71DFFC0434D
:1039900080B210BDF8B5CE464746040080B5002879
:1039A0002FD000239946FF330027012698466589CA
:1039B00060682900FFF708FFC019070C0004000C1D
:1039C0003F182E4209D04B46414673403A0699466D
:1039D0003B0A120C0B401A4317002468002CE6D156
:1039E0004B46002B0AD038063B04000C1B0E184334
:1039F000C04380B2C0BCB946B046F8BDF84380B2FF
:103A0000F8E70148F6E7C046FFFF00000322094B34
:103A1000FA219343084A0901136000221A71074AE8
:103A200058181060012219600271054A5A50054A5F
:103A30001360704737D200202CD2002030D20020F3
:103A4000A00FA00F68380020F0B5D6464F46464676
:103A5000C0B500285ED0830700D07FE00300414A54
:103A6000083B12689A4200D972E03F490C300C685A
:103A7000844200D26CE01979002900D16BE0FA2071
:103A80001988000181420CD85D88AA46854208D871
:103A9000981A80B280465619A84205D03088404511
:103AA00002D03248FDF7DCFC5018844237D04588FC
:103AB0004545F6D100251D712D4DAC462D689D4222
:103AC00002D965462B601D009C423ED9834212D02C
:103AD0000779002F0FD184420DD0A8422FD0018842
:103AE000FA2019800001814205D0444650184480D4
:103AF000588882461618B3420CD03079002809D174
:103B0000AB4219D0FA2331801B01994202D05346AF
:103B100052185380E0BCBA46B146A846F0BD002515
:103B20001D71134DAC462D68AB420CD265462B601F
:103B30009C420AD91D00CBE763461E60E2E761465E
:103B40001D000B60CBE79C42C2D80A48FDF788FCF9
:103B50000948FDF785FC0948FDF782FC0848FDF798
:103B60007FFCC0462CD2002030D20020C8D60110E5
:103B700068380020FCD6011084D60110A0D60110B0
:103B800060D60110F8B5CE464746384ACB1C80B502
:103B900013400B2B3FD9FA22120193423ED899428F
:103BA0003CD8334A1668864256D8324A1268824256
:103BB00052D90400083C2588A11B2A0089B2083A82
:103BC000521A92B29A424AD321D07719BC463F7911
:103BD000002F25D1FA221201954243D06246128865
:103BE000254D91460A0008329B182F689BB2F218A7
:103BF00067452FD0002515714D4651801580FA215B
:103C00002380128809018A4201D0B2185380C0BCB7
:103C1000B946B046F8BD0C239942C2D90020F6E758
:103C20001F001437BFB2BA42F1D30A0008329B1802
:103C3000FA229BB298461201954213D00E4FF21809
:103C40003B68934200D93A600027434617711580BC
:103C50005180D4E72A60CDE70848FDF701FC084809
:103C6000FDF7FEFB0748FDF7FBFBC046FCFF00002D
:103C70002CD2002030D200206838002018D7011044
:103C800030D7011050D70110F8B5DE4657464E46E2
:103C90004546E0B500282ED0404BC61C1E40B3461A
:103CA0000B2E2FD9FA231B019E4224D8584522D827
:103CB0003B4BFA279A461B6859469846394B3F01B9
:103CC000186843461B1A9AB21B041B0C7F1A9F42AA
:103CD00011D9082149428946C41894462579C25A07
:103CE00019001300002D04D14E46711A8918594548
:103CF0000BD29742F0D80020F0BCBB46B246A94692
:103D0000A046F8BD0C239B46D0E75B46143399428E
:103D100011D201235E4623710836234B1A68A04551
:103D200020D0A619B24233D320000830A407E3D034
:103D30001E48FDF795FB5E466346FA2708369B1939
:103D40009BB23F01BB4226D0C1180A8062464A801E
:103D500001220D71238022710A88BA42DDD08218B7
:103D60005380DAE743461B79002B08D1D9E7434655
:103D70001B889846804443461B79002B04D090450D
:103D8000F5D153461A60CCE7534641461960C8E75F
:103D90000748FDF765FB0748FDF762FBFCFF0000E5
:103DA000683800202CD2002030D2002094D7011097
:103DB00064D7011050D7011024230022F0B54746E4
:103DC000CE4690469946033204249446124E80B55E
:103DD000124B134FB1444146326839606146033398
:103DE0008B43002C0BD015880021002200E003003B
:103DF0000132196058191900A242F8DB3B60043601
:103E0000B14504D03268976853685488E3E7C0BC72
:103E1000B946B046F0BDC04620F40110A8C9002044
:103E2000D0D1002010B5082812D80C4B8000C458FF
:103E3000FDF72EFAA3681C68002C07D022681A60D0
:103E4000A30707D1FDF726FA200010BDFDF722FADF
:103E50000024F9E70248FDF703FBC04620F40110F7
:103E6000D8D7011070B50C0008280ED800290CD046
:103E7000084B8000C5588B0708D1FDF709FAAB68DD
:103E80001A6822601C60FDF705FA70BD0248FDF754
:103E9000E7FAC04620F40110FCD701100C20404284
:103EA0007047C04670B505000E00140082B0002AAD
:103EB0002AD043680A689A4201D102B070BD2360DB
:103EC000200001A9019202F08FF8200001A905F05D
:103ED000E7FE01A9200000F07FFE392332686A6006
:103EE000E95C343B0B40052B05D0EB69002BE4D09B
:103EF00028009847E1E7002AF7D00907F5D5280000
:103F0000291D07F0F1FFF0E70148FDF7A9FAC046C7
:103F10001CD801107047C046F0B54746CE4680B564
:103F200004000F0090461E0083B000286AD00B9B4F
:103F3000002B67D0002900D17BE04346002B00D145
:103F40007CE0002E00D17EE04A4B00256361002218
:103F5000392320006560A560E56025860021E254D4
:103F6000283004220EF050FE0A9BE5616362424B4A
:103F700025621A7899463C23E2540C9B23613B68E6
:103F8000002B45D043461B68002B2FD0A36033681D
:103F9000002B2ED13900200001AAFFF783FF20005B
:103FA0000B9B984700282DD1344B98461E683C2324
:103FB000E55CFF2D01D10025E0543C273C20002E7C
:103FC00048D080223300520002E01B68002B41D011
:103FD0009C424CD0013A002A0DD0D95DA942F4D1BF
:103FE0000135EDB2FF2D09D02554EAE73368002BE7
:103FF000D0D0E360CEE72248FDF732FA0023002557
:104000002354DEE7002003B0C0BCB946B046F0BD83
:10401000390001AA2000FFF745FF4346A1681B684D
:10402000E268994211D0A36033689A42B7D0E36046
:10403000B5E74346134F002B00D082E7114B98465B
:10404000002E00D080E70F4E7EE733689A42A6D05C
:10405000E360A4E7FE2D08D00135EDB24B461D709C
:104060004346266020001C60CDE70025F6E70648A1
:10407000FDF7F6F99D3E001087E30020F0D1002007
:1040800040D8011014F701102CD80110F0B504002D
:104090000D0017001E0083B0002922D0002F23D06E
:1040A000002E24D02B680022002B15D03B68A1687D
:1040B0008B4200D0A3603368E1688B4203D1002AB1
:1040C00004D003B0F0BDE360002AFAD16A462900AB
:1040D0002000FFF7E7FEF4E76268002A09D1012219
:1040E000E4E7174D002FDBD1154F002EDAD1144E27
:1040F000D8E7684601A90193009201F075FF684670
:1041000001A905F0CDFD01A9684600F065FD392340
:104110002A686260E15C343B0B40052B06D0E36902
:10412000002BDCD0200098470122BFE7002AF6D000
:104130000907F4D52000211D07F0D6FEEFE7C046A1
:1041400014F7011070B5041E16D04368002B17D168
:1041500039220121A35C194224D11D4B1A68A242C5
:104160002ED01C4A1368A34204D126E01A68A2424A
:1041700003D01300002BF9D170BD22681A60FBE751
:10418000051D0021280001F02FFF0021280005F067
:1041900087FD0021280000F01FFD39220121A35CCA
:1041A0001942DAD018008843A0541B070BD4E369E6
:1041B000002BD2D020009847CFE723681360DBE7BD
:1041C00000221A60CDE7200007F000FBEFE7C046B1
:1041D000ECD10020F0D10020014B18607047C046A0
:1041E000ECD1002070B5041E10D03925435DDA07EC
:1041F0000CD401221343DBB24355C269002A01D01B
:104200009047635D05221A40052A00D070BD6268A0
:10421000002AFBD01B07F9D52000211D07F064FE02
:10422000F4E7C04670B5041E03D03925435D5A0734
:1042300000D570BD04221343435506F08DFC0523C1
:10424000625D1340052B05D0236A002BF1D02000BE
:104250009847EEE76368002BF6D01207F4D52000EC
:10426000211D07F041FEEFE710B500280AD03922E2
:104270000421835C194205D08B438354036A002BCD
:1042800000D0984710BDC046021E0ED0084B1868DB
:10429000002809D03C2102E00068002804D0435CDB
:1042A0000133DBB29342F7D170470020FCE7C046F0
:1042B000F0D10020F8B505000026002826D00F27F1
:1042C0000BE0012B24D0002B2AD12800FFF7BCFBE8
:1042D0000136F6B2002C19D02500FCF7D9FFAC7BD3
:1042E000002C1AD0013CE4B2AC73FCF7D3FF002CD5
:1042F0000CD12B7B2C683B40022BE2D129000820FB
:104300000136FFF7AFFDF6B2002CE5D13000F8BD65
:1043100029000720FFF7A6FDDAE70348FDF7A0F81C
:104320000248FDF79DF8C04670D8011088D80110EA
:1043300010B5FCF7ADFF0022084B1A70FCF7AAFF7E
:10434000074B1868002803D107E0C068002804D094
:10435000436F002BF9D001F091FE10BD89E30020DE
:1043600028E30020F0B5C1234F464646D646804696
:10437000C0B50D00170004005B009A4242D0002235
:104380000C0491460C439F4208D83D00433BFF3B41
:104390009D43012D24D03B48FDF762F8A0239B00EC
:1043A0009F42F8D10300032703330335BB43BD43CA
:1043B0005B199BB21800103080B2AB4260D38542CB
:1043C0005ED8FFF761FC061E16D04B4603604346DD
:1043D000C3181333BB4343602B4B8460C3600BE0B3
:1043E0000720FFF71FFD061E06D04B4684600360C2
:1043F000436007734373C5813000E0BCBA46B146E1
:10440000A846F0BD00239846204B00269A4600237C
:104410000327994607E04246ED1AADB21060002D21
:10442000EAD0804600240820FFF7FCFC00281BD0BF
:104430005246E31CBB43D31A1A1C9BB2AB4200D9B1
:104440002A1C4946041993B213344281104ABC43D2
:10445000016044600581C260002EDCD1ED1AADB26E
:104460000600002DDDD1C7E7FCF712FF0122094B42
:104470001A70FCF70FFF002E02D03000FFF71AFF72
:104480000026B9E79CD8011080000100EC0500006F
:104490008200010089E3002070B5041E33D0028938
:1044A0008A421BD98A1A07E0C91A238989B29B1844
:1044B00023812468002C20D063898B42F4D3227B93
:1044C0000D040D43120701D18B4208D12068A5606D
:1044D000002801D0FFF7EEFE0023236070BD636863
:1044E00020001B1BC91889B2FFF74CFB002807D01E
:1044F0008442EBD00548FCF7B3FF0548FCF7B0FF5A
:104500000448FCF7ADFF0448FCF7AAFF04D90110EA
:10451000D0D80110E8D80110B8D80110030070B548
:1045200000281FD08022520291420CD2002917D0BD
:1045300002898CB2A21892B2944204D8057B012061
:104540007F2D02D870BD0120FCE75D68691A1D004F
:104550001035A942F6D3596059891A8164185C81D3
:104560000020EFE70148FCF77BFFC04620D901108F
:1045700010B5002815D080235B0299420FD2002984
:104580000BD043898AB29A4209D89B1A4468438166
:10459000038961189B1A41600381002010BD01202E
:1045A000FCE70148FCF75CFF20D9011010B5002999
:1045B00015DB002829D000290FD003898AB2D3182F
:1045C0009BB29A421FD84468611A047B7F2C16D88C
:1045D00041604189038152184281002010BD494247
:1045E000002812D043898AB29A420CD89B1A446898
:1045F0004381038961189B1A41600381EDE7040040
:104600001034A142E4D20120E8E70148FCF728FF7A
:1046100020D9011010B5002802D0FFF74BFE10BDC5
:104620000148FCF71DFFC04620D9011003000020FF
:10463000002B04D01B68013080B2002BFAD17047E8
:1046400010B5041E09D0FCF723FEA37B0133A3732E
:10465000FCF720FEA37B002B00D010BD0148FCF727
:10466000FFFEC0462CD9011010B5002816D0002935
:1046700014D00268002A01D111E01A0003890C89C4
:104680001B19038113681000002BF6D11089538980
:10469000834206D1088911601B18138110BD0200E6
:1046A000F4E70148FCF7DCFE40D9011010B50C001E
:1046B00000281FD000291CD00368002B07D00289D6
:1046C00021895218028118001B68002BF7D102893A
:1046D0004389934211D1228904609B180381FCF71E
:1046E000D7FDA37B0133A373FCF7D4FDA37B002B81
:1046F00006D010BD0029FCD0F1E70348FCF7B0FE5E
:104700000248FCF7ADFEC04640D901102CD901107B
:10471000F8B54746CE46804680B591460F001E004C
:10472000002900D192E00B89934200D28EE000284C
:1047300000D18BE04B460289F3189A4200DA85E0FB
:10474000002544894B890CE0B4423AD03A899A4218
:1047500030D042461289A24243D04A46002A00D1B4
:1047600072E05B1BA41B9C4200D91C004C4500D985
:104770004C464346796858682200801949190EF062
:1047800049FA4B4636192D191C1BA3B299464346CC
:104790005C892200B4425CD37B89AB425CD3D3D129
:1047A0003F68002F22D0B4420AD07B893A89002585
:1047B0009A42CED13A68002ACBD00620404225E06A
:1047C000002543461B689846002B23D07B893A89F5
:1047D00093422ED042465489424612890026A24274
:1047E000BBD142461268002AB7D0E6E74B46002B01
:1047F0002CD1B44221D043461B89934224D1434655
:104800001868431E9841052340429843C0BCB946EE
:10481000B046F8BD4B46002B18D13A897B89002061
:104820009A42F3D13868431E984105234042984389
:10483000ECE73A68002ACDD0BFE743461B689846AC
:10484000002B01D05A89D6E70020DFE71020404234
:10485000DCE70348FCF704FE0248FCF701FEC04613
:1048600070D9011088D9011010B5002904D0002397
:104870000A89FFF74DFF10BD10204042FBE7C046FC
:10488000F0B5C64605008846170000B500280DD0D3
:1048900000290BD0002F09D06C89002B0BD0A3422C
:1048A00009D32D681B1B9BB2002DF5D100263000CB
:1048B00080BCB846F0BD002603E0002DF7D00023F1
:1048C0006C89E41A221CA4B2BC4200D93A1C94B2EE
:1048D000424669683F1B9019C9182200A619BFB249
:1048E0000EF098F9B6B22D68002FE6D1DFE7C0468A
:1048F000F8B5CE46474605008846914680B5002863
:1049000024D0002922D0038993421CD3160000270B
:10491000002A02D112E0002D1BD06C89B44200D9CC
:10492000340043466868D91922000EF073F9361B2B
:104930002D683F19002EEED1B9450DD10020C0BC25
:10494000B946B046F8BD01204042F8E71020404289
:10495000F5E70348FCF784FD0248FCF781FDC046FB
:10496000A4D90110BCD90110F0B5D6464F46464631
:1049700005008A46C0B5002805D144E02D68DB1B40
:104980009BB2002D3FD06F899F42F7D92989981893
:104990008146814237DB6868C018FB1A9A422EDDD7
:1049A0009BB21A00514698460EF034F94B46DF1B75
:1049B000BBB29946002B1CD02F68002F29D03B8911
:1049C0004B4520D34E46002401E0002F1ED07D89A8
:1049D000B54200D935004346191978682A00514478
:1049E0000EF018F9761B3F686419002EEDD1A14531
:1049F00012D10020E0BCBA46B146A846F0BD5146EF
:104A00000EF008F9F5E701204042F3E70448FCF70F
:104A100027FD10204042EDE70248FCF721FDC0468B
:104A2000A4D90110BCD901100B0070B51500118973
:104A30001A00FFF797FC041E06D0002329002A89DC
:104A4000FFF766FE002801D1200070BD0148FCF789
:104A500007FDC046D4D9011005E043898B4205D833
:104A6000C91A006889B20028F7D1704743685A54C0
:104A7000FBE7C046F0B5DE46454657464E46804603
:104A8000E0B5514F83B03968786908F051FC43466E
:104A90005A684E4B557A1C689B46002C00D18EE01C
:104AA000002843D13C2300269946844604E0E3686D
:104AB0002600002B32D01C00237CAB42F7D1217A98
:104AC000002906D048467B681B5C0133DBB2994263
:104AD000EDD12368002B02D079698B42E7D1012107
:104AE000637C194203D061683B699942DFD16369F5
:104AF0009A46002BDBD0019221004246A069344B3C
:104B0000D047002850D143465A68019B934258D160
:104B100002239C46E3682600002BCCD1604603B0FC
:104B2000F0BCBB46B246A946A046F0BD002001231A
:104B300000269A46019004E0E3682600002B31D05D
:104B40001C00237CAB42F7D1217A002908D07B6876
:104B50009C463C236046C35C0133DBB29942EBD1F7
:104B60002368002BE8D15146637C194203D0616869
:104B70003B699942E0D163699946002BDCD00192F0
:104B800021004246A069124BC84700280CD1434679
:104B90005A68019B9A4214D102230193E3682600CC
:104BA000002BCDD10198BAE7002E06D0E368F36060
:104BB0005B461B68E3605B461C600120AFE700209A
:104BC000ADE70448FCF74CFC4C380020F0E1002035
:104BD0005C380020E8D9011010B5002811D0026817
:104BE000002A0ED000290CD00B68002B09D0094BED
:104BF0001B68002B05D01C68944203D0DB68002B97
:104C0000F9D110BD0A681A60DB68002BF9D0026880
:104C1000F1E7C046F0E100207047C04610B5041E21
:104C200020D0037D042B03D0072B0AD0032B11D1F6
:104C3000200003F00BFC0523002807D0431C0BD0F9
:104C400010BD03F003FC0028F8D1092320002375D0
:104C500003F070FF0020F3E70822638B002013436A
:104C60006383EDE70148FCF7FBFBC04634DA011033
:104C700070B50600806F002803D0FFF7CBFC00233F
:104C8000B367746F002C18D06068256800280CD0BA
:104C9000FFF7C0FC21000420FFF7E4F8002D0AD044
:104CA0002C00606825680028F2D121000420FFF75D
:104CB000D9F8002DF4D1002373670123F46E5B4211
:104CC0003386002C16D06068256800280CD0FFF7CA
:104CD000A1FC21000420FFF7C5F8002D0AD02C000C
:104CE000606825680028F2D121000420FFF7BAF897
:104CF000002DF4D1346F002C16D060682568002890
:104D00000CD0FFF787FC21000420FFF7ABF8002D43
:104D10000AD02C00606825680028F2D12100042008
:104D2000FFF7A0F8002DF4D100236822F366336763
:104D3000B35270BD10B5FCF75DFE044A8004944682
:104D4000034B800C6044188010BDC04600C0FFFFBC
:104D5000D811002010B5037D0100012B03D00220E3
:104D6000FFF780F810BD0148FCF77AFB40DA01102C
:104D7000F8B5CE46474680B5002961D0002864D0FA
:104D8000037D002B5ED1002A2BD0314E3700103727
:104D900033681B68002B03D113E0DB68002B10D0B5
:104DA000DC8A9442F9D11C68002C04D00D68002DD7
:104DB00001D0AC42F1D108204042C0BCB946B04657
:104DC000F8BD0436B742E3D10B68002B00D0036076
:104DD000204BC2821A681860C26004F0FFFA0020FB
:104DE000EBE71D4B802698461A881C4B184F9C46B3
:104DF00010239946F601B944013292B2624514D0AB
:104E00003D002B681B68002B03D111E0DB68002BF1
:104E10000ED0DC8A9442F9D1013EB6B2002EEBD11D
:104E200043461A8002204042C7E7C0221202E7E749
:104E300004354D45E5D143461A80002AC4D1F1E737
:104E400007499BE706204042B7E710204042B4E7FD
:104E5000B0F401102CE30020D8110020FFFF000067
:104E600014F7011070B5041E33D0037D002B30D130
:104E70000320FEF7D7FF051E2BD001222369036113
:104E8000E38A0275C382627D4275A26882602268ED
:104E90000260002B0CD0154A13689C4204D11FE01D
:104EA000DA68944217D01300002BF9D10023E36095
:104EB000237D012B17D021000220FEF7D3FF0C4BDE
:104EC000AB610C4B1A681D60EA6004F087FA280099
:104ED00070BD0025FBE7E268DA600023E360E7E7E6
:104EE000E3681360E2E70448FCF7BAFA2CE3002019
:104EF0009958001034E3002040DA0110F8B5031E81
:104F00001BD0048DC16A466A5D8E0F4F601A8019EE
:104F10002A1CBD420CD892B2821A07D5891B09D42B
:104F20008022520291420BD200208CB25C85F8BDE7
:104F30003A1CF0E700240020F8E70448FCF790FA58
:104F40000348FCF78DFAC046D016000054DA011071
:104F500078DA0110F8B500281DD0037D012B34D07C
:104F6000048D1D4A61188BB293421BD91300466A07
:104F7000458E1A4FC46A0385B218291CBD420BD84E
:104F800089B20919511A11D5A41B1BD480235B02C5
:104F90009C421DD24485F8BD391C89B20919511AA9
:104FA000F2D403E09C42E1D81A00E0E743850C4BC1
:104FB000121B9A42EFD90222438B1343438303F01F
:104FC000B9FDE8E700234385E5E70648FCF748FA22
:104FD0000548FCF745FAC046A02D0000D016000099
:104FE000670B000094DA011078DA0110C54BF0B5B8
:104FF0004E469946DE46574645464A46E0B51B684A
:1050000089B001331360C04A1378059201331370DD
:10501000BE4B0793BE4B0693079B1C68002C00D128
:10502000C7E000239B4649E0012290460B2B00D8A5
:10503000E8E0062D00D10FE1637A1B0758D5042D57
:1050400000D0E8E14B461F68236AFA21FF1A942337
:10505000E35849009A469823E6580433E0587043D1
:1050600050440DF09DF9874200D8BDE1434601331D
:10507000DBB2984601239A46666F002E00D1FDE010
:105080004023E25E53009B185B00BB4241D9257D63
:10509000032D5AD0092D00D109E14346002B00D041
:1050A000ECE0237F627F0133DBB2E56823779A422D
:1050B00000D810E1A3462C00002C7AD0257D002DCD
:1050C00000D1E6E1012D00D1E0E10A2D00D1DAE1C5
:1050D000059BA27F1B789A4200D11FE1A377422350
:1050E000E35C022DA0D1052B00D88BE0012398466C
:1050F000666F002E00D174E14B461F68236AFF1AC9
:1051000000239A464023E25E53009B185B00BB429B
:10511000BDD87068356800280CD0FFF77BFA3100E5
:105120000420FEF79FFE002D0AD02E00706835681F
:105130000028F2D131000420FEF794FE002DF4D1B6
:105140000023257D6367032DA4D14B46226A1B688B
:105150009B1A282B00D8B1E09023E6582000FFF7D7
:1051600087FD5A46079B1B68002A00D167E19C42D5
:1051700000D197E1E368D3605346002B00D04EE1A5
:10518000237D2569E768012B00D188E121000220F9
:10519000FEF768FE0023069C2370002E07D00D2129
:1051A00028004942B0472378002B00D034E73C1E4A
:1051B00084D1584E002431684D46002904D11AE0AC
:1051C0000C00C968002916D00B7D0A2B00D063E1C2
:1051D0002B680A6A9B1AF02BF2D93368002C00D195
:1051E0003AE1994200D166E1CF68E7600220FEF71C
:1051F00039FE391EE8D109B0F0BCBB46B246A9461B
:10520000A046F0BDA123E35C9846002B00D188E0C6
:10521000236F002B00D051E1E36E002B00D144E15D
:10522000A223E35C0B2B00D906E14246A0213A4BB6
:10523000D25C635C934200D207E16023E15A00290B
:1052400025D1200003F06EFF002826D0257D002305
:105250009846062D00D0EFE6638BDB0600D5B2E062
:10526000637A1B0700D543E7666F002E00D043E743
:1052700000239A464346002B00D112E79023E658BC
:10528000012D00D86DE70A2D00D067E769E72000FF
:1052900003F002F8002800D1EEE0A0230022E2543F
:1052A000A132A35C062BD1D80133A354CEE74B46E1
:1052B000226A1B689B1AF02B00D94DE74346002B4E
:1052C00000D049E7237F627F0133DBB2E5682377B3
:1052D0009A4200D9EEE60023069A237713708C33A6
:1052E000E358002B0AD0210020699847069B1B78C1
:1052F000002B00D090E6002800D0DBE6200003F071
:1053000019FCD7E638E300208EE3002028E30020D4
:105310008CE300203CE30020BFF40110A346E468C6
:10532000CAE63023E25E6849238E8B4202D80133FD
:105330001AB222864023E35E934200DD79E6200024
:1053400003F0A6F9257D002807D0236F002B00D09D
:105350006FE6E36E002B00D16BE6022D14D03C22E9
:10536000A35E3E21625EDB109B184222A15C57487F
:105370000A1C0C2977D8D2B2825C93408022120298
:1053800093426EDA4022A3520023482023866033E2
:10539000E15A255A628E0B1CA94200D92B1C9BB2E4
:1053A00050005B0885B2191CAB4200D2011C4A2395
:1053B000E152023BE252002222332000E25203F08B
:1053C000DFFD257D35E64B461F68236AFF1A282F2F
:1053D00000D849E743460133DBB2984600239A469A
:1053E0004AE600239A4652E6A323E35CFA215E4391
:1053F0003000490050440CF0D3FF874200D833E717
:10540000200003F021FE002800D071E6A322A35C57
:105410000133A3546CE6072D00D113E668E6238B15
:10542000626A216D0293E38A20000193231D009399
:10543000230003F0FBF9A3E601239846F9E59C421B
:105440003FD1E368079A136096E60133DBB26354F9
:10545000934200D2FBE6F0E6994229D1CF6837604B
:10546000C4E61B4B8EE70C22D2B2825C93408022B2
:105470001202934286DBF4E7200003F05BFB002876
:1054800000D00AE7E2E61348FBF7EAFF1248FBF711
:10549000E7FF1248FBF7E4FF1148FBF7E1FF114873
:1054A000FBF7DEFF1048FBF7DBFF1048FBF7D8FFE8
:1054B0000F48FBF7D5FF0F48FBF7D2FF0E48FBF76D
:1054C000CFFF0E48FBF7CCFFFE7F0000C8F40110B1
:1054D000FF7F000014DB0110E8DA0110BCDA0110D4
:1054E00004DC011040DA0110ACDB011074DB0110A8
:1054F0005CDC011034DC011040DB0110D8DB011052
:1055000070B5041E16D06068256800280CD0FFF71F
:1055100081F821000420FEF7A5FC002D0AD02C0004
:10552000606825680028F2D121000420FEF79AFC6B
:10553000002DF4D170BDC04610B5041E08D04068DF
:10554000002801D0FFF766F821000420FEF78AFC4E
:1055500010BDC04670B5051E0DD00420FEF762FCDC
:10556000041E06D0102229000DF054FB6068FFF7DE
:1055700067F8200070BD0148FBF772FF84DC011062
:10558000002800D00161704710B5002804D0037DC9
:10559000012B02D08423C15010BD0148FBF760FFEE
:1055A000A0DC011010B5002804D0037D012B02D02F
:1055B0008023C15010BD0148FBF752FFC8DC011029
:1055C00010B5002804D0037D012B02D09023C150D8
:1055D00010BD0148FBF744FFF0DC0110002802D0A9
:1055E000037D012B00D070478161FCE710B50028D6
:1055F00005D0037D012B03D08C23C150427710BD11
:105600000148FBF72DFFC04618DD011010B500283A
:1056100006D0037D012B03D90A2B01D0FFF728FB0D
:1056200010BDC04610B50C1E47D0002848D00368F6
:105630008B4204D12FE0DA68A24224D01300002B61
:10564000F9D10023E360237D002B0FD1638BDA07B0
:1056500029D4E36E002B36D1236F002B36D1636F34
:10566000002B36D100232375E38210BD0A2BF0D026
:10567000012BF7D02000FFF7FBFA237D0A2BE8D09F
:10568000012BEFD0E2E7E268DA600023E360237DDC
:10569000002BEBD1DAE7CB6803600023E360237DC6
:1056A000002BE3D1D2E7022213436383200003F0EF
:1056B00041FA237D012BD5D0CBE70748FBF7D0FE7D
:1056C0000648FBF7CDFE0648FBF7CAFE0548FBF788
:1056D000C7FE0548FBF7C4FE38DD011054DD01109C
:1056E00074DD01108CDD0110A8DD0110F0B54E460F
:1056F0004546DE465746E0B505000E0087B0002857
:1057000076D0037D012B00D1B0E00A2B00D19BE0C5
:10571000026D9246426A059290228258934602692F
:105720009146C28A9046002B69D1002A6FD100238E
:10573000002698462C6F002C16D060682768002839
:105740000CD0FEF767FF21000420FEF78BFB002F33
:105750000AD03C00606827680028F2D121000420AC
:10576000FEF780FB002FF4D1EC6E002C16D06068A1
:10577000276800280CD0FEF74DFF21000420FEF71B
:1057800071FB002F0AD03C00606827680028F2D126
:1057900021000420FEF766FB002FF4D16C6F002C73
:1057A00016D06068276800280CD0FEF733FF210070
:1057B0000420FEF757FB002F0AD03C0060682768E2
:1057C0000028F2D121000420FEF74CFB002FF4D179
:1057D000002E2CD12B7D012B45D029000220FEF775
:1057E00041FB5B46002B03D00D2148464942D84778
:1057F00007B0F0BCBB46B246A946A046F0BD2900A2
:105800001C48FFF70FFF01221B4B1A7092E71B4A3F
:105810001368834208D1C36813600023EB6086E7F6
:10582000DA68AA421CD01300002BF9D1F5E72B8BC4
:1058300051460293434601932B1D009328002B00F1
:10584000059A02F0F3FFC5E729000D48FFF7EAFECD
:105850002B7D012B07D029000220FEF703FBC7E7B1
:10586000EA68DA60D9E70748FBF7FAFD0648FBF774
:10587000F7FDC04628E300208CE300202CE3002045
:105880003CE3002040DA0110C0DD011010B5012119
:10589000FFF72CFF10BDC046080010B5002905D049
:1058A0000121FFF723FF0D20404210BD0148FBF707
:1058B000D7FDC046F4DD0110F0B5C646060000B5C0
:1058C0000220FEF7AFFA041E2AD0A42200212000F5
:1058D0000DF09AF96423624A6675E252614B4022E8
:1058E000A362FF23E372F93BA352E3875E4B44328A
:1058F00023635E4B1B6823625D4B1B78A3775D4B74
:10590000A3645D4BA35094235C4AE2505C4A043389
:10591000E25009220433E250200080BCB846F0BDBA
:10592000584B082798461D68002D0AD02800438B45
:10593000ED681F42F8D0BB434383FFF76FF9002D9A
:10594000F4D1514B1B68002B11D00021474A10683D
:105950001A6A821A914201D811001C00DB68002BE0
:10596000F6D1002C03D001212000FFF7BFFE02205A
:10597000FEF758FA041EA8D143461B68002B16D028
:105980003A4A0021106802E0DB68002B09D01A7D3A
:10599000092AF9D11A6A821A9142F5D811001C001D
:1059A000F2E7002C03D000212000FFF79FFE022029
:1059B000FEF738FA041E00D087E743461B68002B29
:1059C00016D02A4A0021106802E0DB68002B09D0BB
:1059D0001A7D082AF9D11A6A821A9142F5D8110063
:1059E0001C00F2E7002C03D000212000FFF77EFE10
:1059F0000220FEF717FA041E00D066E773B2002BF0
:105A00002BDB002E22D0320043461B68013AD2B273
:105A1000002B1BD015490F680021884607E0186A43
:105A20003A1A90461C000A00DB68002B08D0597D0A
:105A30009142F4D3F8D1186A3D1A4545F4D3EFE703
:105A4000002C03D001212000FFF750FE0220FEF7BA
:105A5000E9F9041E00D038E75EE77F22D4E7C046AC
:105A6000A02D0000A02DA02DFFFF180238E300207C
:105A70008EE300200100A02D215C001000DD6D00F0
:105A8000F824010028E300203CE3002010B540206A
:105A9000FFF712FF10BDC04630B5040085B00028E6
:105AA00000D19DE0037D002903D0042B1AD0072BE1
:105AB00018D0012B00D168E0022B4AD0002B5DD119
:105AC000E38A002B4FD04B4A1368A34205D184E0F0
:105AD000DA68A24200D17DE01300002BF8D1002348
